:020000040000FA
:100000000C945D000C9485000C9485000C944305C1
:100010000C9443050C9443050C9485000C948500C6
:100020000C9485000C9485000C9485000C944D056F
:100030000C9485000C9485000C9409060C948500A2
:100040000C94F9040C9485000C94C7040C94A1043E
:100050000C9485000C9485000C9485000C9485000C
:100060000C9485000C9485000000000024002700FB
:100070002A0000000000250028002B0004040404CE
:100080000404040402020202020203030303030342
:10009000010204081020408001020408102001021F
:1000A00004081020000000080002010000030407FB
:1000B00000000000000000004E0611241FBECFEF1C
:1000C000D8E0DEBFCDBF11E0A0E0B1E0E4ECFFE09E
:1000D00002C005900D92A231B107D9F722E0A2E14A
:1000E000B1E001C01D92A338B207E1F710E0CDE501
:1000F000D0E004C02197FE010E94DA07CC35D10779
:10010000C9F70E9494060C94E0070C940000AF928B
:10011000BF92CF92DF92EF92FF920F931F93CF93F4
:10012000DF936C017B018B01040F151FEB015E0156
:10013000AE18BF08C017D10759F06991D601ED91EB
:10014000FC910190F081E02DC6010995892B79F78A
:10015000C501DF91CF911F910F91FF90EF90DF903C
:10016000CF90BF90AF900895FC01538D448D252F03
:1001700030E0842F90E0821B930B541710F0CF9641
:10018000089501970895FC01918D828D981761F073
:10019000A28DAE0FBF2FB11D5D968C91928D9F5F8A
:1001A0009F73928F90E008958FEF9FEF0895FC0169
:1001B000918D828D981731F0828DE80FF11D858D1C
:1001C00090E008958FEF9FEF0895FC01918D228DAF
:1001D000892F90E0805C9F4F821B91098F73992734
:1001E00008958DE491E00E94E50021E0892B09F457
:1001F00020E0822F089580E090E0892B29F00E9472
:10020000F10081110C9400000895FC01A48DA80F49
:10021000B92FB11DA35ABF4F2C91848D90E0019648
:100220008F739927848FA689B7892C93A089B18968
:100230008C91837080648C93938D848D981306C009
:100240000288F389E02D80818F7D80830895EF926D
:10025000FF920F931F93CF93DF93EC0181E0888F80
:100260009B8D8C8D98131AC0E889F989808185FF50
:1002700015C09FB7F894EE89FF896083E889F989F2
:1002800080818370806480839FBF81E090E0DF91F4
:10029000CF911F910F91FF90EF900895F62E0B8D47
:1002A00010E00F5F1F4F0F731127E02E8C8D8E1102
:1002B0000CC00FB607FCFACFE889F989808185FF69
:1002C000F5CFCE010E940501F1CFEB8DEC0FFD2F94
:1002D000F11DE35AFF4FF0829FB7F8940B8FEA8924
:1002E000FB8980818062CFCFCF93DF93EC01888D33
:1002F0008823B9F0AA89BB89E889F9898C9185FDA1
:1003000003C0808186FD0DC00FB607FCF7CF8C912E
:1003100085FFF2CF808185FFEDCFCE010E940501E0
:10032000E9CFDF91CF91089590E0FC01EC55FF4FAC
:100330002491FC01E057FF4F3491FC01E458FF4F3A
:10034000E491EE23C9F0222339F0233001F1A8F41F
:10035000213019F1223029F1F0E0EE0FFF1FEE58A5
:10036000FF4FA591B4918FB7F894EC91611126C01D
:1003700030953E233C938FBF08952730A9F0283055
:10038000C9F0243049F7809180008F7D03C08091AF
:1003900080008F7780938000DFCF84B58F7784BD16
:1003A000DBCF84B58F7DFBCF8091B0008F778093BA
:1003B000B000D2CF8091B0008F7DF9CF3E2BDACF45
:1003C000DC01EC91EC3090F511968C91119728E8B6
:1003D00030E0281B310987FD3395220F331F220F90
:1003E000331F6217730784F012968C9128E532E070
:1003F000281B310987FD3395220F331F220F331F2E
:10040000621773070CF49B0122503109220F331F2E
:100410004FB7F8948E2F90E0FC01EE0FFF1FE80F0E
:10042000F91FEC5EFE4F328321834FBF0895CF93B7
:10043000DF93DC018C918C3008F06DC0CB01FB01A7
:10044000E057FF4F249184589F4FFC0184918823EB
:1004500099F090E0880F991FFC01E859FF4FC59172
:10046000D491FC01EE58FF4F859194918FB7F89489
:10047000E881E22BE8838FBF8C91282F30E0F901CF
:10048000EE0FFF1FE20FF31FEC5EFE4F962F9F73E0
:100490006081607C692B608311961C921197129683
:1004A0001C9212972CE0622F0E94CE07829FB0010F
:1004B000112430E020E0AB01420F531FFA01EE0F90
:1004C000FF1FE40FF51FEC5EFE4F908196FD16C0F6
:1004D0002F5F3F4F2C30310571F781110FC0109203
:1004E000800082E080938100109285001092840049
:1004F000B19A80916F00826080936F00EC918E2F93
:1005000090E0FC01EE0FFF1FE80FF91FEC5EFE4FBD
:100510008081806480838C91DF91CF910895DC018C
:10052000ED91FC910190F081E02D09942F923F9282
:100530004F925F926F927F928F929F92AF92BF92F3
:10054000CF92DF92EF92FF920F931F93CF93DF939F
:10055000EC01FC01E857FF4F80819181009711F079
:100560000E9496028E01085B1F4F3E012AE4620E34
:10057000711C1E0137E8230E311CFBE84F2E552459
:1005800053948C819D81DC01ED91FC910084F18577
:10059000E02D0995181619060CF0C0C12FB7F89474
:1005A00080913F0190914001A0914101B0914201A1
:1005B0002FBF4E815F81688579856C017D01C41AEA
:1005C000D50AE60AF70AB701A601433051056105CD
:1005D000710508F01B828E839F83A887B9878C8161
:1005E0009D81DC01ED91FC910284F385E02D09955C
:1005F000282F3B81313009F449C0A0F1323009F491
:100600005BC0333009F0BDCFD3012C91982F8827E0
:10061000820F911DF801208131812817390701F5DA
:100620002A85F22FFF709F2E203409F049C0DE0189
:1006300021E0E22FE695F0E07696EE0FFF1FEC0F3B
:10064000FD1F1C969C911C971B968C911B97918368
:1006500080832E5F12962D3161F78A818F5F8A83A6
:10066000B4E028C03CEF380F3D3160F41AA62350A7
:100670002BA7992780959095F80191838083F1E0CD
:10068000FB837FCFE4E0CE2ECB827BCFEAA541E097
:100690004E0F4AA7EC0FFD2FF11D8287D8012D9137
:1006A0003C911197281B31092D933C938BA5B2E007
:1006B000481367CFBB8365CFF3018083F3E0E0CFBE
:1006C000D1018C918F1760F2FF2351F28BA58130FD
:1006D00039F68C819D81EF2EF12C5701B1E0AB1AD8
:1006E000B108F2013197F1F7207F203999F1203AD2
:1006F00009F471C0203809F0B3CF28812F5F288317
:1007000064E070E00E948F02B70160587F4F8C81D7
:100710009D810E948F02E4E8EE0EF11CE094F094BB
:10072000D801ED92FC928C819D81DC01ED91FC91D0
:100730000190F081E02DD8016C9109958C819D810B
:10074000F8016181DC01ED91FC910190F081E02DD7
:10075000099586CF66E070E00E948F02B70160576E
:100760007F4F8C819D810E948F028C819D81B6E09C
:10077000BA9D6001BB9DD00C1124CC0EDD1E56012C
:10078000EBE4AE0EB11CDC01ED91FC910190F08127
:10079000E02DD5016C9109958C819D81BCE4CB0E37
:1007A000D11CDC01ED91FC910190F081E02DD6018E
:1007B0006C910995B6E9EB0EF11CF5018081E80E0C
:1007C000F11CD6018C91E80EF11CE094F094F80134
:1007D000F182E082A8CF29812F5F2983F6E0FA9D7C
:1007E0007001FB9DF00C1124EC0EFD1E67012CE442
:1007F000C20ED11CD6012C9144E0B42EB20EDC0105
:10080000ED91FC910190F081E02D6B2D09958B2DE0
:1008100090E080959095F801918380838C819D81F3
:10082000F0EA9F0EDC01ED91FC910190F081E02D4A
:10083000692D0995F8018081918189199109918328
:1008400080838C819D81FDE4EF0EF11CD701BC906B
:10085000DC01ED91FC910190F081E02D6B2D09956B
:10086000F801808191818B199109918380838C811A
:100870009D81D7018D909D90AD90BC90892C9A2C34
:10088000AB2CBB24A7FCBA94DC01ED91FC91019048
:10089000F081E02D682D0995F801808191818819FA
:1008A000910991838083D6018C91843009F03BCFEC
:1008B0008C819D81F70180809180A280B380450169
:1008C000BB2497FCB094AB2CDC01ED91FC91019022
:1008D000F081E02D682D0995F801808191818819BA
:1008E0009109918380838C819D81D701CD90DD908A
:1008F000ED90FC90CF2CDD24EE24FF24DC01ED9163
:10090000FC910190F081E02D6C2D0995F80180811A
:1009100091818C199D099183808305CFDF91CF91BF
:100920001F910F91FF90EF90DF90CF90BF90AF900D
:100930009F908F907F906F905F904F903F902F90FF
:1009400008951F920F920FB60F9211242F933F9389
:100950004F935F936F937F938F939F93AF93BF93C7
:10096000EF93FF938DE491E00E940501FF91EF91D9
:10097000BF91AF919F918F917F916F915F914F91B7
:100980003F912F910F900FBE0F901F9018951F92BF
:100990000F920FB60F9211242F938F939F93EF9383
:1009A000FF93E0915D01F0915E018081E091630130
:1009B000F091640182FD1BC09081809166018F5F80
:1009C0008F7320916701821741F0E0916601F0E09A
:1009D000E35BFE4F958F80936601FF91EF919F91AE
:1009E0008F912F910F900FBE0F901F9018958081BF
:1009F000F4CF1F920F920FB60F9211242F933F93B3
:100A00008F939F93AF93BF9380913F01909140014B
:100A1000A0914101B091420130913E0123E0230FAA
:100A20002D3758F50196A11DB11D20933E018093ED
:100A30003F0190934001A0934101B0934201809106
:100A40003A0190913B01A0913C01B0913D0101968A
:100A5000A11DB11D80933A0190933B01A0933C01ED
:100A6000B0933D01BF91AF919F918F913F912F9195
:100A70000F900FBE0F901F90189526E8230F029637
:100A8000A11DB11DD2CF1F920F920FB60F9211244C
:100A90000F900FBE0F901F9018951F920F920FB6D8
:100AA0000F9211242F933F934F935F936F937F93F4
:100AB0008F939F93AF93BF93CF93DF93EF93FF9366
:100AC00080911201C0911301D0E087FF24C01092E1
:100AD000850010928400809112018F5F8093120133
:100AE00080911201082E000C990B8C179D0724F49D
:100AF000809112018C30C4F1809184009091850026
:100B0000049680349C4908F47AC0809184009091C6
:100B10008500049676C080911201082E000C990B76
:100B20008C179D07C4F6E09112018E2FEE0F990BE2
:100B3000FC01EE0FFF1FE80FF91FEC5EFE4F8081F6
:100B400086FFC9CFE09112018E2FEE0F990BFC01A9
:100B5000EE0FFF1FE80FF91FEC5EFE4F808160E093
:100B60008F730E949401B7CF20918400309185004B
:100B7000E09112018E2FEE0F990BFC01EE0FFF1F7B
:100B8000E80FF91FEC5EFE4F81819281820F931F67
:100B90009093890080938800E09112018E2FEE0FD0
:100BA000990BFC01EE0FFF1FE80FF91FEC5EFE4FE3
:100BB000808186FF11C0E09112018E2FEE0F990BFC
:100BC000FC01EE0FFF1FE80FF91FEC5EFE4F808166
:100BD00061E08F730E949401FF91EF91DF91CF91BB
:100BE000BF91AF919F918F917F916F915F914F9145
:100BF0003F912F910F900FBE0F901F90189580E49A
:100C00009CE990938900809388008FEF8093120174
:100C1000E3CF1F920F920FB60F9211242F933F93A1
:100C20004F935F936F937F938F939F93AF93BF93F4
:100C3000EF93FF938091430190914401009711F04D
:100C40000E949602FF91EF91BF91AF919F918F917A
:100C50007F916F915F914F913F912F910F900FBEB8
:100C60000F901F901895FC01909113019C3098F4FF
:100C700081E0890F809313019083892F90E0FC011C
:100C8000EE0FFF1FE80FF91FEC5EFE4F88EB9BE0B5
:100C90009283818308958FEF80830895EDE4F1E0DE
:100CA0001382128288EE93E0A0E0B0E08483958303
:100CB000A683B78384E091E09183808385EC90E004
:100CC0009587848784EC90E09787868780EC90E016
:100CD000918B808B81EC90E0938B828B82EC90E007
:100CE000958B848B86EC90E0978B868B118E128E81
:100CF000138E148E10928002109282021092810242
:100D000086EF91E00E94330683EF91E00E94330664
:100D100080EF91E00E9433068DEE91E00E94330651
:100D20008AEE91E00C943306789484B5826084BD99
:100D300084B5816084BD85B5826085BD85B58160DF
:100D400085BD80916E00816080936E00109281005D
:100D50008091810082608093810080918100816018
:100D600080938100809180008160809380008091D9
:100D7000B10084608093B1008091B0008160809365
:100D8000B00080917A00846080937A0080917A002C
:100D9000826080937A0080917A00816080937A00EB
:100DA00080917A00806880937A001092C100E0916F
:100DB0005D01F0915E0182E08083E0915901F09144
:100DC0005A011082E0915B01F0915C0180E1808327
:100DD00010926501E0916101F091620186E08083EB
:100DE000E0915F01F0916001808180618083E091FA
:100DF0005F01F0916001808188608083E0915F01F4
:100E0000F0916001808180688083E0915F01F091C2
:100E1000600180818F7D80838DE491E09093FE015D
:100E20008093FD0184E08093FC012FB7F8948091BA
:100E30003F0190914001A0914101B09142012FBF2B
:100E40008093FF0190930002A0930102B0930202ED
:100E50001092230210922402109242021092410238
:100E60001092430280914301909144019093820239
:100E700080938102892B39F48FEA87BD80916E00BF
:100E8000826080936E0089EF91E09093440180939B
:100E9000430163E070E086EF91E00E94170264E096
:100EA00070E083EF91E00E94170265E070E080EF50
:100EB00091E00E94170266E070E08DEE91E00E94E2
:100EC000170268E070E08AEE91E00E94170200E0ED
:100ED00010E080912D0290912E028D3697400CF4F7
:100EE00042C0C0912502D0912602D0934601C09302
:100EF0004501BE0186EF91E00E94E001BE0183EF53
:100F000091E00E94E00160912702709128027093A5
:100F100048016093470180EF91E00E94E0016091F9
:100F2000290270912A0270934A01609349018DEE63
:100F300091E00E94E00160912B0270912C0270936D
:100F40004C0160934B018AEE91E00E94E001011593
:100F5000110509F4BECF0E94F100882309F4B9CF2E
:100F60000E940000B6CF6CED75E086EF91E00E9424
:100F7000E0016CED75E083EF91E00E94E0016CED23
:100F800075E080EF91E00E94E00168EE73E08DEE85
:100F900091E00E94E0016CED75E0D5CF991B79E0FE
:100FA00004C0991F961708F0961B881F7A95C9F7F9
:100FB00080950895EE0FFF1F0590F491E02D0994A0
:100FC000F894FFCF0000000027018700B4007401EF
:060FD000E500C300D7009C
:107800000C94343C0C94513C0C94513C0C94513CE1
:107810000C94513C0C94513C0C94513C0C94513CB4
:107820000C94513C0C94513C0C94513C0C94513CA4
:107830000C94513C0C94513C0C94513C0C94513C94
:107840000C94513C0C94513C0C94513C0C94513C84
:107850000C94513C0C94513C0C94513C0C94513C74
:107860000C94513C0C94513C11241FBECFEFD8E036
:10787000DEBFCDBF11E0A0E0B1E0ECE9FFE702C060
:1078800005900D92A230B107D9F712E0A2E0B1E065
:1078900001C01D92AD30B107E1F70E942D3D0C945F
:1078A000CC3F0C94003C982F959595959595959582
:1078B000905D8F708A307CF0282F295A8091C0000B
:1078C00085FFFCCF9093C6008091C00085FFFCCF60
:1078D0002093C6000895282F205DF0CF982F809127
:1078E000C00085FFFCCF9093C6000895EF92FF92F1
:1078F0000F931F93EE24FF2487018091C00087FD22
:1079000017C00894E11CF11C011D111D81E4E8164B
:1079100082E4F8068FE0080780E0180770F3E09132
:107920000401F091050109958091C00087FFE9CF1E
:107930008091C6001F910F91FF90EF9008950E94D3
:10794000763C982F8091C00085FFFCCF9093C600B5
:1079500091362CF490330CF09053892F089597555D
:10796000892F08951F930E949F3C182F0E949F3CCF
:107970001295107F810F1F9108951F93182F882350
:1079800021F00E94763C1150E1F71F9108951F935A
:10799000182F0E94763C803249F0809103018F5F5E
:1079A000809303018530C1F01F9108958091C0003C
:1079B00085FFFCCF84E18093C6008091C00085FFE5
:1079C000FCCF1093C6008091C00085FFFCCF80E102
:1079D0008093C6001F910895E0910401F091050184
:1079E00009951F9108950E94763C803241F0809164
:1079F00003018F5F80930301853081F008958091AA
:107A0000C00085FFFCCF84E18093C6008091C00058
:107A100085FFFCCF80E18093C6000895E0910401CA
:107A2000F09105010995089540E951E08823A1F0FE
:107A30002D9A28EE33E0FA013197F1F721503040CA
:107A4000D1F72D9828EE33E0FA013197F1F7215064
:107A50003040D1F7815061F708953F924F925F9285
:107A60006F927F928F929F92AF92BF92CF92DF924E
:107A7000EF92FF920F931F93CF93DF93000080E16B
:107A80008093C4001092C50088E18093C10086E015
:107A90008093C2005098589A259A81E00E94143D24
:107AA00024E1F22E9EE1E92E85E9D82E0FE0C02ECA
:107AB00010E1B12EAA24A394B1E49B2EA6E58A2E50
:107AC000F2E57F2EE0E26E2E79E4572E63E5462E36
:107AD00050E5352E0E94763C8033B1F18133B9F107
:107AE000803409F46FC0813409F476C0823409F41B
:107AF00085C0853409F488C0803531F1823521F1A3
:107B0000813511F1853509F485C0863509F48DC0BC
:107B1000843609F496C0843709F403C1853709F423
:107B200072C1863709F466C0809103018F5F80932C
:107B30000301853079F6E0910401F0910501099582
:107B40000E94763C803351F60E94F33CC3CF0E94E2
:107B5000763C803249F78091C00085FFFCCFF092DF
:107B6000C6008091C00085FFFCCF9092C600809136
:107B7000C00085FFFCCF8092C6008091C00085FFC9
:107B8000FCCF7092C6008091C00085FFFCCF609250
:107B9000C6008091C00085FFFCCF5092C600809146
:107BA000C00085FFFCCF4092C6008091C00085FFD9
:107BB000FCCF3092C6008091C00085FFFCCFB09210
:107BC000C60088CF0E94763C863808F4BDCF0E945C
:107BD000763C0E94F33C7ECF0E94763C803809F4CC
:107BE0009CC0813809F40BC1823809F43CC1883942
:107BF00009F48FC080E00E94C73C6CCF84E10E94F2
:107C0000BD3C0E94F33C66CF85E00E94BD3C0E94D3
:107C1000F33C60CF0E94763C809306010E94763C44
:107C2000809307010E94F33C55CF0E94763C80333D
:107C300009F41DC183E00E94BD3C80E00E94C73C66
:107C400049CF0E94763C809309020E94763C809343
:107C5000080280910C028E7F80930C020E94763C79
:107C6000853409F415C18091080290910902892B8D
:107C700089F000E010E00E94763CF801E85FFE4FDA
:107C800080830F5F1F4F80910802909109020817AF
:107C9000190788F30E94763C803209F045CF809125
:107CA0000C0280FF01C16091060170910701660F0F
:107CB000771F7093070160930601A0910802B091AD
:107CC00009021097C9F0E8E0F1E09B01AD014E0F09
:107CD0005F1FF999FECF32BD21BD819180BDFA9A17
:107CE000F99A2F5F3F4FE417F50799F76A0F7B1F4B
:107CF00070930701609306018091C00085FFFCCF5F
:107D0000F092C6008091C00085FFFCCFB092C60003
:107D1000E1CE83E00E94C73CDDCE82E00E94C73CFA
:107D2000D9CE0E94763C809309020E94763C8093D3
:107D300008028091060190910701880F991F909386
:107D40000701809306010E94763C853409F4A6C0A1
:107D500080910C028E7F80930C020E94763C8032D0
:107D600009F0B8CE8091C00085FFFCCFF092C6002C
:107D7000609108027091090261157105B9F140E046
:107D800050E080910C02A82FA170B82FB27011C0E2
:107D9000BB2309F45CC0E0910601F0910701319624
:107DA000F0930701E09306014F5F5F4F46175707B7
:107DB000E8F4AA2369F3F999FECF209106013091E6
:107DC000070132BD21BDF89A90B58091C00085FFB2
:107DD000FCCF9093C6002F5F3F4F30930701209355
:107DE00006014F5F5F4F4617570718F38091C00099
:107DF00085FDE5CE8091C00085FFF8CFE0CE81E023
:107E00000E94C73C67CE0E94763C803209F08CCE3F
:107E10008091C00085FFFCCFF092C6008091C00029
:107E200085FFFCCFE092C6008091C00085FFFCCFAB
:107E3000D092C6008091C00085FFFCCFC092C600E2
:107E40008091C00085FFFCCFB092C60043CEE09188
:107E50000601F091070194918091C00085FFFCCF4D
:107E60009093C6009CCF80E10E94C73C33CE0E9415
:107E7000763C0E94763C182F0E94763C112309F430
:107E800083C0113009F484C08FE00E94C73C22CE29
:107E900080910C02816080930C02E5CE80910C02EF
:107EA000816080930C0259CF809107018823880F4D
:107EB000880B8A2180930B02809106019091070123
:107EC000880F991F90930701809306018091080203
:107ED00080FF09C080910802909109020196909359
:107EE000090280930802F894F999FECF1127E091D6
:107EF0000601F0910701C8E0D1E08091080290915D
:107F00000902103091F40091570001700130D9F34B
:107F100003E000935700E89500915700017001308D
:107F2000D9F301E100935700E89509901990009169
:107F3000570001700130D9F301E000935700E89534
:107F40001395103498F011270091570001700130FB
:107F5000D9F305E000935700E895009157000170B0
:107F60000130D9F301E100935700E895329602976A
:107F700009F0C7CF103011F00296E5CF112480919F
:107F8000C00085FFB9CEBCCE8EE10E94C73CA2CD19
:0E7F900085E90E94C73C9ECDF894FFCF80008B
:00000001FF
