:020000040000FA
:100000000C945D000C9485000C9485000C94850084
:100010000C9485000C9485000C9485000C9485004C
:100020000C9485000C9485000C9485000C94430579
:100030000C9485000C9485000C94FF050C948500AD
:100040000C94F9040C9485000C94C7040C94A1043E
:100050000C9485000C9485000C9485000C9485000C
:100060000C9485000C9485000000000024002700FB
:100070002A0000000000250028002B0004040404CE
:100080000404040402020202020203030303030342
:10009000010204081020408001020408102001021F
:1000A00004081020000000080002010000030407FB
:1000B0000000000000000000440611241FBECFEF26
:1000C000D8E0DEBFCDBF11E0A0E0B1E0E0EBFFE0A3
:1000D00002C005900D92A231B107D9F722E0A2E14A
:1000E000B1E001C01D92A138B207E1F710E0CDE503
:1000F000D0E004C02197FE010E94D007CC35D10783
:10010000C9F70E948A060C94D6070C940000AF929F
:10011000BF92CF92DF92EF92FF920F931F93CF93F4
:10012000DF936C017B018B01040F151FEB015E0156
:10013000AE18BF08C017D10759F06991D601ED91EB
:10014000FC910190F081E02DC6010995892B79F78A
:10015000C501DF91CF911F910F91FF90EF90DF903C
:10016000CF90BF90AF900895FC01538D448D252F03
:1001700030E0842F90E0821B930B541710F0CF9641
:10018000089501970895FC01918D828D981761F073
:10019000A28DAE0FBF2FB11D5D968C91928D9F5F8A
:1001A0009F73928F90E008958FEF9FEF0895FC0169
:1001B000918D828D981731F0828DE80FF11D858D1C
:1001C00090E008958FEF9FEF0895FC01918D228DAF
:1001D000892F90E0805C9F4F821B91098F73992734
:1001E00008958BE491E00E94E50021E0892B09F459
:1001F00020E0822F089580E090E0892B29F00E9472
:10020000F10081110C9400000895FC01A48DA80F49
:10021000B92FB11DA35ABF4F2C91848D90E0019648
:100220008F739927848FA689B7892C93A089B18968
:100230008C91837080648C93938D848D981306C009
:100240000288F389E02D80818F7D80830895EF926D
:10025000FF920F931F93CF93DF93EC0181E0888F80
:100260009B8D8C8D98131AC0E889F989808185FF50
:1002700015C09FB7F894EE89FF896083E889F989F2
:1002800080818370806480839FBF81E090E0DF91F4
:10029000CF911F910F91FF90EF900895F62E0B8D47
:1002A00010E00F5F1F4F0F731127E02E8C8D8E1102
:1002B0000CC00FB607FCFACFE889F989808185FF69
:1002C000F5CFCE010E940501F1CFEB8DEC0FFD2F94
:1002D000F11DE35AFF4FF0829FB7F8940B8FEA8924
:1002E000FB8980818062CFCFCF93DF93EC01888D33
:1002F0008823B9F0AA89BB89E889F9898C9185FDA1
:1003000003C0808186FD0DC00FB607FCF7CF8C912E
:1003100085FFF2CF808185FFEDCFCE010E940501E0
:10032000E9CFDF91CF91089590E0FC01EC55FF4FAC
:100330002491FC01E057FF4F3491FC01E458FF4F3A
:10034000E491EE23C9F0222339F0233001F1A8F41F
:10035000213019F1223029F1F0E0EE0FFF1FEE58A5
:10036000FF4FA591B4918FB7F894EC91611126C01D
:1003700030953E233C938FBF08952730A9F0283055
:10038000C9F0243049F7809180008F7D03C08091AF
:1003900080008F7780938000DFCF84B58F7784BD16
:1003A000DBCF84B58F7DFBCF8091B0008F778093BA
:1003B000B000D2CF8091B0008F7DF9CF3E2BDACF45
:1003C000DC01EC91EC3090F511968C91119728E8B6
:1003D00030E0281B310987FD3395220F331F220F90
:1003E000331F6217730784F012968C9128E532E070
:1003F000281B310987FD3395220F331F220F331F2E
:10040000621773070CF49B0122503109220F331F2E
:100410004FB7F8948E2F90E0FC01EE0FFF1FE80F0E
:10042000F91FEC5EFE4F328321834FBF0895CF93B7
:10043000DF93DC018C918C3008F06DC0CB01FB01A7
:10044000E057FF4F249184589F4FFC0184918823EB
:1004500099F090E0880F991FFC01E859FF4FC59172
:10046000D491FC01EE58FF4F859194918FB7F89489
:10047000E881E22BE8838FBF8C91282F30E0F901CF
:10048000EE0FFF1FE20FF31FEC5EFE4F962F9F73E0
:100490006081607C692B608311961C921197129683
:1004A0001C9212972CE0622F0E94C407829FB00119
:1004B000112430E020E0AB01420F531FFA01EE0F90
:1004C000FF1FE40FF51FEC5EFE4F908196FD16C0F6
:1004D0002F5F3F4F2C30310571F781110FC0109203
:1004E000800082E080938100109285001092840049
:1004F000B19A80916F00826080936F00EC918E2F93
:1005000090E0FC01EE0FFF1FE80FF91FEC5EFE4FBD
:100510008081806480838C91DF91CF910895DC018C
:10052000ED91FC910190F081E02D09942F923F9282
:100530004F925F926F927F928F929F92AF92BF92F3
:10054000CF92DF92EF92FF920F931F93CF93DF939F
:10055000EC01FC01E857FF4F80819181009711F079
:100560000E9496028E01085B1F4F3E012AE4620E34
:10057000711C1E0137E8230E311CFBE84F2E552459
:1005800053948C819D81DC01ED91FC910084F18577
:10059000E02D0995181619060CF0C0C12FB7F89474
:1005A00080913D0190913E01A0913F01B0914001A9
:1005B0002FBF4E815F81688579856C017D01C41AEA
:1005C000D50AE60AF70AB701A601433051056105CD
:1005D000710508F01B828E839F83A887B9878C8161
:1005E0009D81DC01ED91FC910284F385E02D09955C
:1005F000282F3B81313009F449C0A0F1323009F491
:100600005BC0333009F0BDCFD3012C91982F8827E0
:10061000820F911DF801208131812817390701F5DA
:100620002A85F22FFF709F2E203409F049C0DE0189
:1006300021E0E22FE695F0E07696EE0FFF1FEC0F3B
:10064000FD1F1C969C911C971B968C911B97918368
:1006500080832E5F12962D3161F78A818F5F8A83A6
:10066000B4E028C03CEF380F3D3160F41AA62350A7
:100670002BA7992780959095F80191838083F1E0CD
:10068000FB837FCFE4E0CE2ECB827BCFEAA541E097
:100690004E0F4AA7EC0FFD2FF11D8287D8012D9137
:1006A0003C911197281B31092D933C938BA5B2E007
:1006B000481367CFBB8365CFF3018083F3E0E0CFBE
:1006C000D1018C918F1760F2FF2351F28BA58130FD
:1006D00039F68C819D81EF2EF12C5701B1E0AB1AD8
:1006E000B108F2013197F1F7207F203999F1203AD2
:1006F00009F471C0203809F0B3CF28812F5F288317
:1007000064E070E00E948F02B70160587F4F8C81D7
:100710009D810E948F02E4E8EE0EF11CE094F094BB
:10072000D801ED92FC928C819D81DC01ED91FC91D0
:100730000190F081E02DD8016C9109958C819D810B
:10074000F8016181DC01ED91FC910190F081E02DD7
:10075000099586CF66E070E00E948F02B70160576E
:100760007F4F8C819D810E948F028C819D81B6E09C
:10077000BA9D6001BB9DD00C1124CC0EDD1E56012C
:10078000EBE4AE0EB11CDC01ED91FC910190F08127
:10079000E02DD5016C9109958C819D81BCE4CB0E37
:1007A000D11CDC01ED91FC910190F081E02DD6018E
:1007B0006C910995B6E9EB0EF11CF5018081E80E0C
:1007C000F11CD6018C91E80EF11CE094F094F80134
:1007D000F182E082A8CF29812F5F2983F6E0FA9D7C
:1007E0007001FB9DF00C1124EC0EFD1E67012CE442
:1007F000C20ED11CD6012C9144E0B42EB20EDC0105
:10080000ED91FC910190F081E02D6B2D09958B2DE0
:1008100090E080959095F801918380838C819D81F3
:10082000F0EA9F0EDC01ED91FC910190F081E02D4A
:10083000692D0995F8018081918189199109918328
:1008400080838C819D81FDE4EF0EF11CD701BC906B
:10085000DC01ED91FC910190F081E02D6B2D09956B
:10086000F801808191818B199109918380838C811A
:100870009D81D7018D909D90AD90BC90892C9A2C34
:10088000AB2CBB24A7FCBA94DC01ED91FC91019048
:10089000F081E02D682D0995F801808191818819FA
:1008A000910991838083D6018C91843009F03BCFEC
:1008B0008C819D81F70180809180A280B380450169
:1008C000BB2497FCB094AB2CDC01ED91FC91019022
:1008D000F081E02D682D0995F801808191818819BA
:1008E0009109918380838C819D81D701CD90DD908A
:1008F000ED90FC90CF2CDD24EE24FF24DC01ED9163
:10090000FC910190F081E02D6C2D0995F80180811A
:1009100091818C199D099183808305CFDF91CF91BF
:100920001F910F91FF90EF90DF90CF90BF90AF900D
:100930009F908F907F906F905F904F903F902F90FF
:1009400008951F920F920FB60F9211242F933F9389
:100950004F935F936F937F938F939F93AF93BF93C7
:10096000EF93FF938BE491E00E940501FF91EF91DB
:10097000BF91AF919F918F917F916F915F914F91B7
:100980003F912F910F900FBE0F901F9018951F92BF
:100990000F920FB60F9211242F938F939F93EF9383
:1009A000FF93E0915B01F0915C018081E091610136
:1009B000F091620182FD1BC09081809164018F5F84
:1009C0008F7320916501821741F0E0916401F0E09E
:1009D000E55BFE4F958F80936401FF91EF919F91AE
:1009E0008F912F910F900FBE0F901F9018958081BF
:1009F000F4CF1F920F920FB60F9211242F933F93B3
:100A00008F939F93AF93BF9380913D0190913E014F
:100A1000A0913F01B091400130913C0123E0230FB0
:100A20002D3758F50196A11DB11D20933C018093EF
:100A30003D0190933E01A0933F01B093400180910E
:100A4000380190913901A0913A01B0913B01019692
:100A5000A11DB11D8093380190933901A0933A01F3
:100A6000B0933B01BF91AF919F918F913F912F9197
:100A70000F900FBE0F901F90189526E8230F029637
:100A8000A11DB11DD2CF1F920F920FB60F9211244C
:100A90002F933F934F935F936F937F938F939F9386
:100AA000AF93BF93CF93DF93EF93FF9380911201A6
:100AB000C0911301D0E087FF24C0109285001092EE
:100AC0008400809112018F5F809312018091120146
:100AD000082E000C990B8C179D0724F480911201AD
:100AE0008C30C4F18091840090918500049680340C
:100AF0009C4908F47AC08091840090918500049606
:100B000076C080911201082E000C990B8C179D075E
:100B1000C4F6E09112018E2FEE0F990BFC01EE0F3F
:100B2000FF1FE80FF91FEC5EFE4F808186FFC9CFE3
:100B3000E09112018E2FEE0F990BFC01EE0FFF1FBB
:100B4000E80FF91FEC5EFE4F808160E08F730E941A
:100B50009401B7CF2091840030918500E09112017B
:100B60008E2FEE0F990BFC01EE0FFF1FE80FF91F00
:100B7000EC5EFE4F81819281820F931F90938900DA
:100B800080938800E09112018E2FEE0F990BFC01EB
:100B9000EE0FFF1FE80FF91FEC5EFE4F808186FF0E
:100BA00011C0E09112018E2FEE0F990BFC01EE0F98
:100BB000FF1FE80FF91FEC5EFE4F808161E08F732D
:100BC0000E949401FF91EF91DF91CF91BF91AF917E
:100BD0009F918F917F916F915F914F913F912F9155
:100BE0000F900FBE0F901F90189580E49CE9909392
:100BF0008900809388008FEF80931201E3CF1F92CA
:100C00000F920FB60F9211242F933F934F935F9340
:100C10006F937F938F939F93AF93BF93EF93FF93C4
:100C20008091410190914201009711F00E9496023B
:100C3000FF91EF91BF91AF919F918F917F916F91B4
:100C40005F914F913F912F910F900FBE0F901F908A
:100C50001895FC01909113019C3098F481E0890F64
:100C6000809313019083892F90E0FC01EE0FFF1F0A
:100C7000E80FF91FEC5EFE4F88EB9BE092838183C7
:100C800008958FEF80830895EBE4F1E013821282E0
:100C900088EE93E0A0E0B0E084839583A683B783D9
:100CA00084E091E09183808385EC90E09587848750
:100CB00084EC90E09787868780EC90E0918B808B26
:100CC00081EC90E0938B828B82EC90E0958B848B0F
:100CD00086EC90E0978B868B118E128E138E148E7D
:100CE00010927E021092800210927F0284EF91E0B7
:100CF0000E94290681EF91E00E9429068EEE91E084
:100D00000E9429068BEE91E00E94290688EE91E070
:100D10000C942906789484B5826084BD84B5816082
:100D200084BD85B5826085BD85B5816085BD8091B6
:100D30006E00816080936E0010928100809181002E
:100D40008260809381008091810081608093810026
:100D5000809180008160809380008091B1008460E8
:100D60008093B1008091B00081608093B000809149
:100D70007A00846080937A0080917A008260809308
:100D80007A0080917A00816080937A0080917A0065
:100D9000806880937A001092C100E0915B01F0912D
:100DA0005C0182E08083E0915701F091580110824C
:100DB000E0915901F0915A0180E180831092630122
:100DC000E0915F01F091600186E08083E0915D0138
:100DD000F0915E01808180618083E0915D01F091FE
:100DE0005E01808188608083E0915D01F0915E0109
:100DF000808180688083E0915D01F0915E01808157
:100E00008F7D80838BE491E09093FC018093FB01C4
:100E100084E08093FA012FB7F89480913D0190917E
:100E20003E01A0913F01B09140012FBF8093FD0191
:100E30009093FE01A093FF01B09300021092210253
:100E4000109222021092400210923F021092410230
:100E500080914101909142019093800280937F02A2
:100E6000892B39F48FEA87BD80916E008260809370
:100E70006E0087EF91E0909342018093410163E01F
:100E800070E084EF91E00E94170264E070E081EF6F
:100E900091E00E94170265E070E08EEE91E00E9402
:100EA000170266E070E08BEE91E00E94170268E0A6
:100EB00070E088EE91E00E94170200E010E080915F
:100EC0002B0290912C028D3697400CF442C0C091B9
:100ED0002302D0912402D0934401C0934301BE0168
:100EE00084EF91E00E94E001BE0181EF91E00E9459
:100EF000E001609125027091260270934601609393
:100F000045018EEE91E00E94E00160912702709110
:100F1000280270934801609347018BEE91E00E9494
:100F2000E0016091290270912A0270934A01609356
:100F3000490188EE91E00E94E0010115110509F4D4
:100F4000BECF0E94F100882309F4B9CF0E940000AF
:100F5000B6CF6CED75E084EF91E00E94E0016CED9E
:100F600075E081EF91E00E94E0016CED75E08EEE9E
:100F700091E00E94E00168EE73E08BEE91E00E9448
:100F8000E0016CED75E0D5CF991B79E004C0991FA5
:100F9000961708F0961B881F7A95C9F780950895D3
:100FA000EE0FFF1F0590F491E02D0994F894FFCF08
:100FB0000000000027018700B4007401E500C300B1
:020FC000D70058
:107E0000112484B714BE81FFF0D085E080938100F7
:107E100082E08093C00088E18093C10086E0809377
:107E2000C20080E18093C4008EE0C9D0259A86E02C
:107E300020E33CEF91E0309385002093840096BBD3
:107E4000B09BFECF1D9AA8958150A9F7CC24DD24C4
:107E500088248394B5E0AB2EA1E19A2EF3E0BF2EE7
:107E6000A2D0813461F49FD0082FAFD0023811F036
:107E7000013811F484E001C083E08DD089C08234E0
:107E800011F484E103C0853419F485E0A6D080C0E4
:107E9000853579F488D0E82EFF2485D0082F10E0AE
:107EA000102F00270E291F29000F111F8ED06801E7
:107EB0006FC0863521F484E090D080E0DECF843638
:107EC00009F040C070D06FD0082F6DD080E0C81688
:107ED00080E7D80618F4F601B7BEE895C0E0D1E017
:107EE00062D089930C17E1F7F0E0CF16F0E7DF06D8
:107EF00018F0F601B7BEE89568D007B600FCFDCFD4
:107F0000A601A0E0B1E02C9130E011968C91119780
:107F100090E0982F8827822B932B1296FA010C0160
:107F200087BEE89511244E5F5F4FF1E0A038BF0790
:107F300051F7F601A7BEE89507B600FCFDCF97BE46
:107F4000E89526C08437B1F42ED02DD0F82E2BD052
:107F50003CD0F601EF2C8F010F5F1F4F84911BD097
:107F6000EA94F801C1F70894C11CD11CFA94CF0C13
:107F7000D11C0EC0853739F428D08EE10CD085E9AC
:107F80000AD08FE07ACF813511F488E018D01DD067
:107F900080E101D065CF982F8091C00085FFFCCF94
:107FA0009093C60008958091C00087FFFCCF809118
:107FB000C00084FD01C0A8958091C6000895E0E648
:107FC000F0E098E1908380830895EDDF803219F02E
:107FD00088E0F5DFFFCF84E1DECF1F93182FE3DFCA
:107FE0001150E9F7F2DF1F91089580E0E8DFEE27F6
:047FF000FF270994CA
:027FFE00040479
:00000001FF
